:020000040800F2
:100000000050002091110008B5100008BB10000836
:10001000C1100008C7100008CD1000080000000043
:10002000000000000000000000000000D3100008E5
:10003000DF10000800000000EB100008F7100008B7
:10004000D9110008D9110008D9110008D9110008E8
:10005000D9110008D9110008D9110008D9110008D8
:10006000D9110008D9110008D9110008D9110008C8
:10007000D9110008D9110008D9110008D9110008B8
:10008000D9110008D9110008D9110008D9110008A8
:10009000D9110008D9110008D9110008D911000898
:1000A000D9110008D9110008D9110008D911000888
:1000B00005110008D9110008D9110008D91100084C
:1000C000D9110008D9110008D9110008D911000868
:1000D000D9110008D9110008D9110008D911000858
:1000E000D9110008D9110008D9110008000000003A
:1000F0000000000000000000000000000000000000
:0C01000000000000000000005FF808F1A3
:10010C0010B5054C237833B9044B13B10448AFF345
:10011C0000800123237010BDCC00002000000000E3
:10012C00AC3A000808B5034B1BB103490348AFF3C5
:10013C00008008BD00000000D0000020AC3A000890
:10014C0080B500AF374B1B680133364A1360354B13
:10015C001B68032B03DD334B00221A6006E0314B86
:10016C001B68002B02D0304B01221A602D4B1B68F0
:10017C00032B53D801A252F823F000BF99010008B9
:10018C009F010008CD010008FB01000800F0C0FB36
:10019C0045E001224FF48071244801F048FB012214
:1001AC008021234801F043FB01224FF400711F48CA
:1001BC0001F03DFB012240211E4801F038FB2EE0EE
:1001CC0000224FF48071194801F031FB002280218C
:1001DC00174801F02CFB01224FF40071134801F079
:1001EC0026FB01224021134801F021FB17E00022DD
:1001FC004FF400710D4801F01AFB002240210D480C
:10020C0001F015FB01224FF48071084801F00FFB3F
:10021C0001228021064801F00AFB00E000BF00BF6C
:10022C0080BD00BFE8000020040100200008014050
:10023C0000100140000C014080B500AFFFF780FFBB
:10024C0000BF80BD80B500AF214B1B68214A1360F5
:10025C00214B1B681E4A13600821204801F0D0FA7C
:10026C0003461A461C4B1A601A4B1A68184B1B682B
:10027C009A422BD1164B1A68174B1B689A4225D100
:10028C00174B1A68144B1B689A420DD0124B1B6803
:10029C00134A1360104B1B68002B17D1FFF750FF4C
:1002AC00104BC8221A6011E00E4B1B68013B0D4A23
:1002BC0013600C4B1B68002B08D1074B1B68002BE1
:1002CC0001D1FFF7B9FF074BC8221A6000BF80BDF0
:1002DC00040000200000002008000020000C014059
:1002EC000C0000201000002080B483B000AF7860B8
:1002FC00134B1B68002B1DD0114B1B68013B114A83
:10030C0052F823100E4B1B68013B7A680A440D49C6
:10031C0041F823200A4B1B68013B0A4A52F8233050
:10032C00094A934206DD064B1B68013B054A002136
:10033C0042F8231000BF0C37BD4680BC704700BF8D
:10034C00E80000203C000020B882010080B500AF1E
:10035C004FF47A70FFF7C8FF00BF80BD80B500AFC7
:10036C0041F28830FFF7C0FF00BF80BD80B500AF01
:10037C00214B1B68214A1360214B1B681E4A1360DA
:10038C002021204801F03CFA03461A461C4B1A6007
:10039C001A4B1A68184B1B689A422BD1164B1A68C9
:1003AC00174B1B689A4225D1174B1A68144B1B68C4
:1003BC009A420DD0124B1B68134A1360104B1B68EA
:1003CC00002B17D1FFF7C2FF104B64221A6011E00B
:1003DC000B4B1B68002B0DD10C4B1B68013B0B4AC4
:1003EC0013600A4B1B68002B04D1FFF7B7FF074BB8
:1003FC0064221A6000BF80BD180000201400002089
:10040C001C000020000C01402000002024000020D3
:10041C0080B500AF284B1B68012B13D1264B1B68F2
:10042C00013B264A52F82330254A1360244B1A68A4
:10043C00244B1B68D31A244A1360234B1B681F4A96
:10044C0093602EE01C4B1B68022B13D11A4B1B68BC
:10045C00013B1A4A52F823301A4A1360194B1A6896
:10046C00194B1B681344164A1360154B1B68134A2F
:10047C00136016E0104B1B68032B12D10E4B1B683C
:10048C00013B0E4A52F823300F4A13600D4B1A6889
:10049C000D4B1B6813440A4A1360094B1B68074A2F
:1004AC001360054B1B68002B04D000F031FA024B93
:1004BC0000221A6000BF80BDE80000203C00002034
:1004CC004C000020500000205400002080B500AFEC
:1004DC00FFF79EFF00BF80BD80B500AF214B1B68AE
:1004EC00214A1360214B1B681E4A136010212048BF
:1004FC0001F086F903461A461C4B1A601A4B1A680F
:10050C00184B1B689A422BD1164B1A68174B1B6859
:10051C009A4225D1174B1A68144B1B689A420DD07E
:10052C00124B1B68134A1360104B1B68002B17D11E
:10053C00FFF76EFF104BC8221A6011E00E4B1B68C0
:10054C00013B0D4A13600C4B1B68002B08D1074B69
:10055C001B68002B01D1FFF7B9FF074BC8221A60AB
:10056C0000BF80BD2C00002028000020300000209F
:10057C00000C0140340000203800002080B58AB007
:10058C0000AF00F0BEFA0A2000F084FE354B1B6869
:10059C00002B38D1344B1B68344A82FB03125211A6
:1005AC00DB17D31A7B62324B1B68304A82FB031277
:1005BC005211DB17D31A3B620021012000F0A8FA7C
:1005CC002C4800F089FA07F118007B6A2A4A0721A7
:1005DC0002F018FE07F11803184600F07DFA00210E
:1005EC00022000F095FA254800F076FA07F1100089
:1005FC003B6A214A072102F005FE07F11003184659
:10060C0000F06AFA29E00021012000F081FA1C4870
:10061C0000F062FA134B1B6807F10C00164A032119
:10062C0002F0F0FD07F10C03184600F055FA00211A
:10063C00022000F06DFA134800F04EFA094B1B68CB
:10064C00013B114A52F82330381D0B4A072102F0A6
:10065C00D9FD3B1D184600F03FFA00BF2837BD46B8
:10066C0080BD00BFE8000020F00000201F85EB518A
:10067C00F8000020C43A0008CC3A0008D03A000830
:10068C00D83A0008E03A00083C00002080B500AFE2
:10069C00934B1B68032B00F2188101A252F823F034
:1006AC00BD06000815080008530800089508000846
:1006BC008C4B1B68002B07D08A4B00221A60FA2047
:1006CC0000F0E2FBFFF75AFF874B1B68002B4CD066
:1006DC00854B00221A60854B1B68022B30D0022BF5
:1006EC0044DC002B02D0012B15D03FE07F4B0122C4
:1006FC001A6001224FF480717D4801F098F80022B5
:10070C004FF400717A4801F092F87A4B1B68184646
:10071C0000F086FB2AE0754B02221A6000224FF48F
:10072C008071734801F083F801224FF40071704816
:10073C0001F07DF8704B1B68184600F071FB15E05A
:10074C006A4B00221A6001224FF48071684801F054
:10075C006EF801224FF40071654801F068F8674BA0
:10076C001B68184600F05CFB00E000BF644B1B6884
:10077C00002B47D0624B00221A60624B1B68022B85
:10078C002DD0022B00F3A380002B02D0012B13D011
:10079C009DE05C4B01221A60012280215A4801F035
:1007AC0046F800224021594801F041F8514B1B6892
:1007BC00184600F04FFB26E0524B02221A60002232
:1007CC008021514801F033F8012240214F4801F0BB
:1007DC002EF8494B1B68184600F03CFB13E0494BC4
:1007EC0000221A6001228021474801F020F80122E2
:1007FC004021464801F01BF8404B1B68184600F09E
:10080C0029FB00E000BF62E0364B1B68002B60D078
:10081C00344B00221A60FA2000F036FB4FF4807142
:10082C00334801F01CF88021374801F018F84FF4D8
:10083C0000712F4801F013F84021344801F00FF8F3
:10084C00FFF79CFE45E0274B1B68002B43D0254B44
:10085C0000221A60FA2000F017FB00224FF480717E
:10086C00234800F0E4FF00228021274800F0DFFF3E
:10087C004FF400711E4800F0F2FF4021234800F0B5
:10088C00EEFFFFF77BFE26E0164B1B68002B24D0F7
:10089C00144B00221A60FA2000F0F6FA00224FF4F2
:1008AC000071134800F0C3FF00224021174800F0EC
:1008BC00BEFF4FF480710E4800F0D1FF802112482A
:1008CC0000F0CDFFFFF75AFE07E000BF06E000BFC7
:1008DC0004E000BF02E000BF00E000BF00BF80BD2D
:1008EC00E800002004010020F4000020EC000020AF
:1008FC000008014054000020500000204C00002053
:10090C00FC0000204800002000100140000C0140B9
:10091C0080B500AF00224FF48071204800F087FFB3
:10092C00002280211E4800F082FF00224FF400714B
:10093C001A4800F07CFF002240211A4800F077FF93
:10094C0001224FF48071154800F071FF01224FF421
:10095C000071124800F06BFF134B1B68184600F037
:10096C005FFA012280210E4800F061FF0022402135
:10097C000C4800F05CFF0D4B1B68184600F06AFA3F
:10098C00FA2000F081FA0A4B00221A60094B01226E
:10099C001A60094B00221A6000BF80BD000801409C
:1009AC0000100140000C01404C00002054000020BD
:1009BC00EC000020480000200801002080B586B023
:1009CC0002AF0346FB71FB7923F00F03FB73FB793A
:1009DC001B01BB73FB7B43F00C03DBB23B72FB7B59
:1009EC0043F00803DBB27B72BB7B43F00C03DBB23E
:1009FC00BB72BB7B43F00803DBB2FB7207F108024E
:100A0C006423009304234221034801F085F800BFBE
:100A1C001037BD4680BD00BF1801002080B586B0E0
:100A2C0002AF0346FB71FB7923F00F03FB73FB79D9
:100A3C001B01BB73FB7B43F00D03DBB23B72FB7BF7
:100A4C0043F00903DBB27B72BB7B43F00D03DBB2DB
:100A5C00BB72BB7B43F00903DBB2FB7207F10802EC
:100A6C006423009304234221034801F055F800BF8E
:100A7C001037BD4680BD00BF1801002080B500AF07
:100A8C003320FFF79BFF3220FFF798FF322000F056
:100A9C0001FC2820FFF792FF322000F0FBFB012025
:100AAC00FFF78CFF322000F0F5FB0620FFF786FFE6
:100ABC00322000F0EFFB0C20FFF780FF322000F01B
:100ACC00E9FB0220FFF77AFF322000F0E3FB8020E5
:100ADC00FFF774FF00BF80BD80B582B000AF7860B7
:100AEC0006E07B685A1C7A601B781846FFF796FF65
:100AFC007B681B78002BF4D100BF00BF0837BD46C4
:100B0C0080BD80B500AF0120FFF758FF00BF80BD4E
:100B1C0080B584B000AF786039607B68012B08D158
:100B2C007B68DAB23B68DBB21344DBB27F33FB7316
:100B3C0008E03B68DBB24033DBB25BB263F07F03AF
:100B4C005BB2FB73FB7B1846FFF738FF00BF103717
:100B5C00BD4680BD80B500AF00F03AFB00F012F846
:100B6C0000F0C6F800F078F800F048F8044801F0FE
:100B7C0075FFFFF783FFFFF7CBFEFFF787FDFCE761
:100B8C006C01002080B590B000AF07F1180328224B
:100B9C000021184602F02EFB3B1D00221A605A6001
:100BAC009A60DA601A610223BB610123BB621023D5
:100BBC00FB6200237B6307F11803184601F004FB6A
:100BCC000346002B01D000F025F90F237B60002396
:100BDC00BB600023FB6000233B6100237B613B1D5A
:100BEC000021184601F070FD0346002B01D000F0E7
:100BFC0011F900BF4037BD4680BD000080B500AF85
:100C0C00124B134A1A60114B124A5A600F4B0022B6
:100C1C009A600E4B0022DA600C4B4FF480421A6142
:100C2C000A4B00225A61094B00229A61074B0022A1
:100C3C00DA61064B00221A62044800F029FE0346D2
:100C4C00002B01D000F0E6F800BF80BD1801002099
:100C5C0000540040A086010080B586B000AF07F1BB
:100C6C00080300221A605A609A60DA603B46002240
:100C7C001A605A601D4B4FF080421A601B4B41F6B4
:100C8C003F725A60194B00229A60184B0922DA60A5
:100C9C00164B00221A61154B00229A61134801F081
:100CAC008DFE0346002B01D000F0B4F84FF48053B6
:100CBC00BB6007F1080319460C4802F011F8034613
:100CCC00002B01D000F0A6F800233B6000237B60D2
:100CDC003B461946054802F0F3F90346002B01D0B8
:100CEC0000F098F800BF1837BD4680BD6C0100209D
:100CFC0080B588B000AF07F1100300221A605A606B
:100D0C009A60DA60374B9B69364A43F01003936163
:100D1C00344B9B6903F01003FB60FB68314B9B6900
:100D2C00304A43F0040393612E4B9B6903F0040398
:100D3C00BB60BB682B4B9B692A4A43F00803936149
:100D4C00284B9B6903F008037B607B6800228021A1
:100D5C00254800F06CFD00224FF44071234800F050
:100D6C0066FD00224021224800F061FD80233B619A
:100D7C0001237B610023BB610223FB6107F110039C
:100D8C001946194800F0B8FB4FF440733B6101233E
:100D9C007B610023BB610223FB6107F11003194641
:100DAC00124800F0A9FB38233B6100237B6101232F
:100DBC00BB6107F1100319460D4800F09DFB402361
:100DCC003B6101237B610023BB610223FB6107F1C3
:100DDC0010031946064800F08FFB00BF2037BD46B4
:100DEC0080BD00BF0010024000100140000801400F
:100DFC00000C014080B582B000AF786000F05EF866
:100E0C00FFF720FAFFF7B2FAFFF766FB00BF0837CF
:100E1C00BD4680BD80B400AF72B600BFFEE70000D7
:100E2C0080B483B000AF7860074B1B687A6892FB84
:100E3C00F3F3064A1360064B00221A6000BF0C370E
:100E4C00BD4680BC704700BF58000020F000002059
:100E5C00F400002080B483B000AF7860074B1B68AF
:100E6C007A6892FBF3F3064A1360064B00221A6071
:100E7C0000BF0C37BD4680BC704700BF5800002037
:100E8C00F8000020FC00002080B483B000AF786034
:100E9C00074B1B687A6892FBF3F3064A1360064B08
:100EAC0000221A6000BF0C37BD4680BC704700BFE3
:100EBC0058000020000100200401002080B400AF85
:100ECC001F4B1B68002B0BDD1D4B1B68013B1C4A89
:100EDC0013601B4B1B68002B02D11A4B01221A60AA
:100EEC00194B1B68002B0BDD174B1B68013B164A7B
:100EFC001360154B1B68002B02D1144B01221A6096
:100F0C00134B1B68002B17DD114B1B68013B104A60
:100F1C0013600F4B1B68002B0ED10E4B01221A6075
:100F2C000D4B1B6801335A4203F0030302F003021A
:100F3C0058BF5342084A136000BFBD4680BC70477F
:100F4C00F0000020F4000020F8000020FC0000203D
:100F5C0000010020040100200801002080B485B0AD
:100F6C0000AF154B9B69144A43F001039361124B7C
:100F7C009B6903F00103BB60BB680F4BDB690E4A36
:100F8C0043F08053D3610C4BDB6903F080537B60DF
:100F9C007B680A4B5B68FB60FB6823F0E063FB60DB
:100FAC00FB6843F00073FB60044AFB68536000BFAE
:100FBC001437BD4680BC7047001002400000014051
:100FCC0080B58AB000AF786007F1140300221A6074
:100FDC005A609A60DA607B681B681D4A934232D172
:100FEC001C4B9B691B4A43F008039361194B9B698B
:100FFC0003F008033B613B694FF440737B611223A0
:10100C00BB6103233B6207F114031946124800F03D
:10101C0073FA124B5B687B627B6A43F0E0637B6222
:10102C007B6A43F002037B620C4A7B6A5360094B78
:10103C00DB69084A43F40013D361064BDB6903F404
:10104C000013FB60FB6800BF2837BD4680BD00BFA6
:10105C000054004000100240000C01400000014010
:10106C0080B584B000AF78607B681B68B3F1804FAB
:10107C0013D10C4BDB690B4A43F00103D361094BD1
:10108C00DB6903F00103FB60FB68002200211C20DC
:10109C0000F0FBF91C2000F014FA00BF1037BD461D
:1010AC0080BD00BF0010024080B400AFFEE780B4EA
:1010BC0000AFFEE780B400AFFEE780B400AFFEE700
:1010CC0080B400AFFEE780B400AF00BFBD4680BC6B
:1010DC00704780B400AF00BFBD4680BC704780B481
:1010EC0000AF00BFBD4680BC704780B500AF00F0BC
:1010FC00B5F800BF80BD000080B500AF024801F01C
:10110C00FFFC00BF80BD00BF6C01002080B586B025
:10111C0000AF7860144A154BD31A7B617B693B6135
:10112C00134B1B68002B02D1114B124A1A60104B47
:10113C001A687B6813443A699A4207D202F030F875
:10114C0003460C221A604FF0FF3309E0084B1B6872
:10115C00FB60074B1A687B681344054A1360FB68F5
:10116C0018461837BD4680BD005000200004000012
:10117C000C010020C801002080B400AF00BFBD46A8
:10118C0080BC7047FFF7F8FF0B480C490C4A002352
:10119C0002E0D458C4500433C4188C42F9D3094A21
:1011AC00094C002301E013600432A242FBD301F08E
:1011BC00FDFFFFF7CFFC704700000020CC000020A3
:1011CC00543B0008CC000020C8010020FEE70000C2
:1011DC0080B500AF084B1B68074A43F0100313603F
:1011EC00032000F047F90F2000F008F8FFF7B6FED7
:1011FC000023184680BD00BF0020024080B582B09D
:10120C0000AF7860124B1A68124B1B7819464FF4DA
:10121C007A73B3FBF1F3B2FBF3F3184600F05FF90A
:10122C000346002B01D001230EE07B680F2B0AD85C
:10123C00002279684FF0FF3000F027F9064A7B68EE
:10124C001360002300E0012318460837BD4680BD1B
:10125C005C000020640000206000002080B400AF1F
:10126C00054B1B781A46054B1B681344034A136045
:10127C0000BFBD4680BC704764000020B401002054
:10128C0080B400AF024B1B681846BD4680BC70474B
:10129C00B401002080B584B000AF7860FFF7F0FF98
:1012AC00B8607B68FB60FB68B3F1FF3F05D00A4B6D
:1012BC001B781A46FB681344FB6000BFFFF7E0FF86
:1012CC000246BB68D31AFA689A42F7D800BF00BF2F
:1012DC001037BD4680BD00BF6400002080B485B0CF
:1012EC0000AF78607B6803F00703FB600C4BDB6896
:1012FC00BB60BA684FF6FF031340BB60FB681A0271
:10130C00BB68134343F0BF6343F40033BB60044A30
:10131C00BB68D36000BF1437BD4680BC704700BFAC
:10132C0000ED00E080B400AF044BDB681B0A03F057
:10133C0007031846BD4680BC704700BF00ED00E0B7
:10134C0080B483B000AF0346FB7197F90730002BD4
:10135C000BDBFB7903F01F02064997F907305B0999
:10136C00012000FA02F241F8232000BF0C37BD46E1
:10137C0080BC704700E100E080B483B000AF03464E
:10138C003960FB7197F90730002B0ADB3B68DAB246
:10139C000C4997F907301201D2B20B4483F80023A1
:1013AC000AE03B68DAB20849FB7903F00F03043B0F
:1013BC001201D2B20B441A7600BF0C37BD4680BC6A
:1013CC00704700BF00E100E000ED00E080B489B0A0
:1013DC0000AFF860B9607A60FB6803F00703FB614B
:1013EC00FB69C3F10703042B28BF0423BB61FB6912
:1013FC000433062B02D9FB69033B00E000237B611D
:10140C004FF0FF32BB6902FA03F3DA43BB681A40B0
:10141C007B699A404FF0FF317B6901FA03F3D943A2
:10142C007B680B40134318462437BD4680BC70477D
:10143C0080B582B000AF78607B68013BB3F1807FF0
:10144C0001D301230FE00A4A7B68013B53600F2153
:10145C004FF0FF30FFF790FF054B00229A60044BD2
:10146C0007221A60002318460837BD4680BD00BF0E
:10147C0010E000E080B582B000AF78607868FFF7CC
:10148C002DFF00BF0837BD4680BD80B586B000AFCC
:10149C000346B9607A60FB7300237B61FFF742FF60
:1014AC0078617A68B9687869FFF790FF024697F916
:1014BC000F3011461846FFF75FFF00BF1837BD46C7
:1014CC0080BD80B582B000AF0346FB7197F9073041
:1014DC001846FFF735FF00BF0837BD4680BD80B505
:1014EC0082B000AF78607868FFF7A2FF0346184619
:1014FC000837BD4680BD000080B48BB000AF78606B
:10150C00396000237B6200233B6269E101227B6A24
:10151C0002FA03F3FB613B681B68FA691340BB6179
:10152C00BA69FB699A4240F058813B685B689A4AF9
:10153C0093425ED0984A934275D8984A934258D0B9
:10154C00964A93426FD8964A934252D0944A934209
:10155C0069D8944A93424CD0924A934263D8924AA7
:10156C00934246D0904A93425DD8122B2AD8122B24
:10157C0059D801A252F823F0FF150008D91500081C
:10158C00EB1500082D16000833160008331600085A
:10159C0033160008331600083316000833160008FB
:1015AC0033160008331600083316000833160008EB
:1015BC00331600083316000833160008E11500082E
:1015CC00F5150008794A934213D02CE03B68DB6890
:1015DC003B6229E03B68DB6804333B6224E03B68F8
:1015EC00DB6808333B621FE03B68DB680C333B6213
:1015FC001AE03B689B68002B02D104233B6213E08A
:10160C003B689B68012B05D108233B627B68FA6918
:10161C001A6109E008233B627B68FA695A6103E0AE
:10162C0000233B6200E000BFBB69FF2B01D87B6845
:10163C0001E07B6804337B61BB69FF2B02D87B6ABA
:10164C009B0002E07B6A083B9B003B617B691A684C
:10165C000F213B6901FA03F3DB431A40396A3B69FA
:10166C0001FA03F31A437B691A603B685B6803F069
:10167C008053002B00F0B1804D4B9B694C4A43F0DA
:10168C00010393614A4B9B6903F00103BB60BB6888
:10169C00484A7B6A9B08023352F82330FB607B6A12
:1016AC0003F003039B000F2202FA03F3DB43FA68F7
:1016BC001340FB607B68404A934213D07B683F4ADF
:1016CC0093420DD07B683E4A934207D07B683D4ADB
:1016DC00934201D1032306E0042304E0022302E039
:1016EC00012300E000237A6A02F003029200934087
:1016FC00FA681343FB602F497B6A9B080233FA6834
:10170C0041F823203B685B6803F48013002B06D060
:10171C002D4B9A682C49BB6913438B6006E02A4B0E
:10172C009A68BB69DB43284913408B603B685B6854
:10173C0003F40013002B06D0234BDA682249BB6953
:10174C001343CB6006E0204BDA68BB69DB431E49D0
:10175C001340CB603B685B6803F40033002B06D06E
:10176C00194B5A681849BB6913434B6006E0164B7A
:10177C005A68BB69DB43144913404B603B685B6898
:10178C0003F48033002B21D00F4B1A680E49BB6930
:10179C0013430B6021E000BF000032100000311039
:1017AC000000221000002110000012100000111087
:1017BC00001002400000014000080140000C0140F4
:1017CC000010014000140140000401400B4B1A684A
:1017DC00BB69DB43094913400B607B6A01337B62B5
:1017EC003B681A687B6A22FA03F3002B7FF48EAEF7
:1017FC0000BF00BF2C37BD4680BC704700040140C1
:10180C0080B485B000AF78600B467B807B689A68AB
:10181C007B881340002B02D00123FB7301E00023D3
:10182C00FB73FB7B18461437BD4680BC704780B4F5
:10183C0083B000AF78600B467B8013467B707B785F
:10184C00002B03D07A887B681A6103E07B881A042A
:10185C007B681A6100BF0C37BD4680BC704780B4F2
:10186C0085B000AF78600B467B807B68DB68FB60E3
:10187C007A88FB6813401A04FB68D9437B880B40B9
:10188C001A437B681A6100BF1437BD4680BC704791
:10189C0080B584B000AF78607B68002B01D1012348
:1018AC002BE17B6893F83D30DBB2002B06D17B68D3
:1018BC00002283F83C207868FFF782FB7B682422A7
:1018CC0083F83D207B681B681A687B681B6822F0D4
:1018DC0001021A607B681B681A687B681B6842F4FB
:1018EC0000421A607B681B681A687B681B6822F4CC
:1018FC0000421A6001F030F8F8607B685B68814A3E
:10190C00934207D8FB68804A934294BF012300237B
:10191C00DBB206E0FB687D4A934294BF01230023AF
:10192C00DBB2002B01D00123E7E0FB68784AA2FB75
:10193C0003239B0CBB607B681B685B6823F03F0137
:10194C007B681B68BA680A435A607B681B681B6A11
:10195C0023F03F017B685B686A4A934202D8BB68FC
:10196C00013309E0BB684FF4967202FB03F3694A3A
:10197C00A2FB03239B0901337A6812680B431362A1
:10198C007B681B68DB6923F44F4222F0FF027B6803
:10199C005B685C498B4219D8FB68591E7B685B6895
:1019AC005B00B1FBF3F3591C40F6FC730B40002BAE
:1019BC000AD0FB68591E7B685B685B00B1FBF3F3D4
:1019CC000133C3F30B0351E004234FE07B689B68A6
:1019DC00002B11D1FB68581E7B6859680B465B00C5
:1019EC000B44B0FBF3F30133C3F30B03002B0CBF1D
:1019FC0001230023DBB212E0FB68581E7B68596898
:101A0C000B469B000B4499000B44B0FBF3F30133E2
:101A1C00C3F30B03002B0CBF01230023DBB2002B01
:101A2C0001D0012322E07B689B68002B0ED1FB6860
:101A3C00581E7B6859680B465B000B44B0FBF3F3F4
:101A4C000133C3F30B0343F400430FE0FB68581E50
:101A5C007B6859680B469B000B4499000B44B0FB08
:101A6C00F3F30133C3F30B0343F440437968096880
:101A7C001343CB617B681B681B6823F0C0017B6838
:101A8C00DA697B681B6A1A437B681B680A431A6015
:101A9C007B681B689B6823F4034323F0FF037A687D
:101AAC0011697A68D26811437A6812680B439360A3
:101ABC007B681B68DB6823F0FF017B685A697B68D5
:101ACC009B691A437B681B680A43DA607B681B6856
:101ADC001A687B681B6842F001021A607B6800225E
:101AEC001A647B68202283F83D207B6800221A63ED
:101AFC007B68002283F83E20002318461037BD4631
:101B0C0080BD00BFA08601007F841E00FF083D0041
:101B1C0083DE1B43D34D621080B588B002AFF860F2
:101B2C007A601A460B467B8113463B81FFF7A8FB74
:101B3C007861FB6893F83D30DBB2202B40F0E080FD
:101B4C007B690093192301227049F86800F064F94D
:101B5C000346002B01D00223D3E0FB6893F83C3002
:101B6C00012B01D10223CCE0FB68012283F83C203D
:101B7C00FB681B681B6803F00103012B07D0FB6893
:101B8C001B681A68FB681B6842F001021A60FB684C
:101B9C001B681A68FB681B6822F400621A60FB68F9
:101BAC00212283F83D20FB68102283F83E20FB683D
:101BBC0000221A64FB687A685A62FB683A895A8573
:101BCC00FB685B8D9AB2FB681A85FB68504ADA6237
:101BDC0079897B693A6AF86800F09CF80346002B17
:101BEC0001D001238DE000233B61FB681B685B691E
:101BFC003B61FB681B689B693B613B6966E07A69EA
:101C0C00396AF86800F022FA0346002B0DD0FB6805
:101C1C001B6C042B07D1FB681B681A68FB681B68DC
:101C2C0042F400721A6001236BE0FB685B6A1A785D
:101C3C00FB681B681A61FB685B6A5A1CFB685A627A
:101C4C00FB685B8D9BB2013B9AB2FB685A85FB68C3
:101C5C001B8D013B9AB2FB681A85FB681B685B699C
:101C6C0003F00403042B1BD1FB681B8D002B17D036
:101C7C00FB685B6A1A78FB681B681A61FB685B6A15
:101C8C005A1CFB685A62FB685B8D9BB2013B9AB293
:101C9C00FB685A85FB681B8D013B9AB2FB681A8561
:101CAC007A69396AF86800F019FA0346002B0DD0EE
:101CBC00FB681B6C042B07D1FB681B681A68FB685C
:101CCC001B6842F400721A6001231AE0FB681B8D3A
:101CDC00002B94D1FB681B681A68FB681B6842F4E4
:101CEC0000721A60FB68202283F83D20FB680022FA
:101CFC0083F83E20FB68002283F83C20002300E0A0
:101D0C00022318461837BD4680BD00BF02001000E4
:101D1C000000FFFF80B588B002AFF8607A603B60CE
:101D2C000B467B81FB68DB6A7B617B69082B06D0E9
:101D3C007B69012B03D07B6913F5803F08D1FB68CD
:101D4C001B681A68FB681B6842F480721A600BE00F
:101D5C00FB681B6B122B07D1FB681B681A68FB68AE
:101D6C001B6842F480721A603B6800937B68002207
:101D7C004FF00111F86800F04FF80346002B0DD01E
:101D8C00FB681B681B6803F48073B3F5807F03D179
:101D9C00FB684FF400721A64032335E0FB681B697F
:101DAC00B3F5804F08D17B89DBB21A46FB681B6800
:101DBC0002F0FE021A611BE07B89DB11DBB203F03F
:101DCC000603DBB263F00F03DAB2FB681B681A611F
:101DDC003B687A680E49F86800F098F80346002BC7
:101DEC0001D0012310E07B89DAB2FB681B681A6111
:101DFC003B687A680749F86800F088F80346002BBE
:101E0C0001D0012300E0002318461837BD4680BDE1
:101E1C00080001000200010080B584B000AFF8603A
:101E2C00B9603B601346FB7148E03B68B3F1FF3F80
:101E3C0044D0FFF725FA0246BB69D31A3A689A4296
:101E4C0002D33B68002B39D1BB681B0CDBB2012BD6
:101E5C000DD1FB681B685B69DA43BB6813409BB20E
:101E6C00002B0CBF01230023DBB21A460CE0FB68ED
:101E7C001B689B69DA43BB6813409BB2002B0CBFF9
:101E8C0001230023DBB21A46FB799A4216D1FB6878
:101E9C0000221A63FB68202283F83D20FB68002295
:101EAC0083F83E20FB681B6C43F02002FB681A642D
:101EBC00FB68002283F83C20012323E0BB681B0C49
:101ECC00DBB2012B0DD1FB681B685B69DA43BB6885
:101EDC0013409BB2002B0CBF01230023DBB21A462C
:101EEC000CE0FB681B689B69DA43BB6813409BB230
:101EFC00002B0CBF01230023DBB21A46FB799A425C
:101F0C0093D0002318461037BD4680BD80B584B0F1
:101F1C0000AFF860B9607A603B6071E0FB681B68E9
:101F2C005B6903F48063B3F5806F23D1FB681B6896
:101F3C001A68FB681B6842F400721A60FB681B6825
:101F4C006FF480625A61FB6800221A63FB682022DE
:101F5C0083F83D20FB68002283F83E20FB681B6C55
:101F6C0043F00402FB681A64FB68002283F83C20EF
:101F7C00012367E07B68B3F1FF3F41D0FFF780F9A5
:101F8C0002463B68D31A7A689A4202D37B68002BCC
:101F9C0036D1BB681B0CDBB2012B0CD1FB681B6868
:101FAC005B69DA43BB6813409BB2002B14BF01235F
:101FBC000023DBB20BE0FB681B689B69DA43BB6850
:101FCC0013409BB2002B14BF01230023DBB2002B68
:101FDC0016D0FB6800221A63FB68202283F83D2090
:101FEC00FB68002283F83E20FB681B6C43F0200248
:101FFC00FB681A64FB68002283F83C20012321E073
:10200C00BB681B0CDBB2012B0CD1FB681B685B693A
:10201C00DA43BB6813409BB2002B14BF012300238F
:10202C00DBB20BE0FB681B689B69DA43BB681340AF
:10203C009BB2002B14BF01230023DBB2002B7FF4D7
:10204C006DAF002318461037BD4680BD80B584B0F7
:10205C0000AFF860B9607A6034E0F86800F086F898
:10206C000346002B01D0012334E0BB68B3F1FF3FE2
:10207C0028D0FFF705F902467B68D31ABA689A4252
:10208C0002D3BB68002B1DD1FB681B685B6903F096
:10209C008003802B16D0FB6800221A63FB68202279
:1020AC0083F83D20FB68002283F83E20FB681B6C04
:1020BC0043F02002FB681A64FB68002283F83C2082
:1020CC00012307E0FB681B685B6903F08003802B2E
:1020DC00C3D1002318461037BD4680BD80B584B0EF
:1020EC0000AFF860B9607A6034E0F86800F03EF850
:1020FC000346002B01D0012334E0BB68B3F1FF3F52
:10210C0028D0FFF7BDF802467B68D31ABA689A420A
:10211C0002D3BB68002B1DD1FB681B685B6903F005
:10212C000403042B16D0FB6800221A63FB682022E0
:10213C0083F83D20FB68002283F83E20FB681B6C73
:10214C0043F02002FB681A64FB68002283F83C20F1
:10215C00012307E0FB681B685B6903F00403042B95
:10216C00C3D1002318461037BD4680BD80B483B060
:10217C0000AF78607B681B685B6903F48063B3F520
:10218C00806F1BD17B681B686FF480625A617B681F
:10219C0000221A637B68202283F83D207B68002292
:1021AC0083F83E207B681B6C43F004027B681A6446
:1021BC007B68002283F83C20012300E000231846B2
:1021CC000C37BD4680BC704780B586B000AF7860D8
:1021DC007B68002B01D101236CE27B681B6803F048
:1021EC000103002B00F08780924B5B6803F00C031B
:1021FC00042B0CD08F4B5B6803F00C03082B12D113
:10220C008C4B5B6803F48033B3F5803F0BD1894B67
:10221C001B6803F40033002B6CD07B685B68002BCD
:10222C0068D1012346E27B685B68B3F5803F06D139
:10223C00804B1B687F4A43F4803313602EE07B682D
:10224C005B68002B0CD17B4B1B687A4A23F48033E0
:10225C001360784B1B68774A23F4802313601DE0CE
:10226C007B685B68B3F5A02F0CD1724B1B68714A6D
:10227C0043F4802313606F4B1B686E4A43F4803326
:10228C0013600BE06B4B1B686A4A23F480331360BA
:10229C00684B1B68674A23F4802313607B685B6878
:1022AC00002B13D0FEF7ECFF386108E0FEF7E8FFD7
:1022BC0002463B69D31A642B01D90323FAE15D4B27
:1022CC001B6803F40033002BF0D014E0FEF7D8FFAA
:1022DC00386108E0FEF7D4FF02463B69D31A642B41
:1022EC0001D90323E6E1534B1B6803F40033002BA5
:1022FC00F0D100E000BF7B681B6803F00203002BE9
:10230C0063D04C4B5B6803F00C03002B0BD0494B98
:10231C005B6803F00C03082B1CD1464B5B6803F481
:10232C008033002B16D1434B1B6803F00203002BA8
:10233C0005D07B681B69012B01D00123BAE13D4B11
:10234C001B6823F0F8027B685B69DB003949134397
:10235C000B603AE07B681B69002B20D0364B0122C6
:10236C001A60FEF78DFF386108E0FEF789FF024620
:10237C003B69D31A022B01D903239BE12D4B1B681C
:10238C0003F00203002BF0D02A4B1B6823F0F80259
:10239C007B685B69DB00274913430B6015E0264B18
:1023AC0000221A60FEF76CFF386108E0FEF768FF48
:1023BC0002463B69D31A022B01D903237AE11D4B48
:1023CC001B6803F00203002BF0D17B681B6803F041
:1023DC000803002B3AD07B689B69002B19D0174B54
:1023EC0001221A60FEF74CFF386108E0FEF748FF47
:1023FC0002463B69D31A022B01D903235AE10D4B38
:10240C005B6A03F00203002BF0D0012000F0B8FA55
:10241C001CE00A4B00221A60FEF732FF38610FE015
:10242C00FEF72EFF02463B69D31A022B08D9032371
:10243C0040E100BF001002400000424280044242D2
:10244C009E4B5B6A03F00203002BE9D17B681B688F
:10245C0003F00403002B00F0A6800023FB75974BC0
:10246C00DB6903F08053002B0DD1944BDB69934A4D
:10247C0043F08053D361914BDB6903F08053BB6015
:10248C00BB680123FB758E4B1B6803F48073002B18
:10249C0018D18B4B1B688A4A43F480731360FEF788
:1024AC00EFFE386108E0FEF7EBFE02463B69D31AFB
:1024BC00642B01D90323FDE0814B1B6803F480736B
:1024CC00002BF0D07B68DB68012B06D17B4B1B6AA1
:1024DC007A4A43F0010313622DE07B68DB68002B22
:1024EC000CD1764B1B6A754A23F001031362734BB4
:1024FC001B6A724A23F0040313621CE07B68DB68DE
:10250C00052B0CD16D4B1B6A6C4A43F00403136210
:10251C006A4B1B6A694A43F0010313620BE0674B79
:10252C001B6A664A23F001031362644B1B6A634AFD
:10253C0023F0040313627B68DB68002B15D0FEF7D5
:10254C009FFE38610AE0FEF79BFE02463B69D31AF8
:10255C0041F28832934201D90323ABE0574B1B6AFB
:10256C0003F00203002BEED014E0FEF789FE386175
:10257C000AE0FEF785FE02463B69D31A41F2883227
:10258C00934201D9032395E04C4B1B6A03F00203E1
:10259C00002BEED1FB7D012B05D1484BDB69474A63
:1025AC0023F08053D3617B68DB69002B00F08180C2
:1025BC00424B5B6803F00C03082B61D07B68DB6932
:1025CC00022B46D13F4B00221A60FEF759FE3861B0
:1025DC0008E0FEF755FE02463B69D31A022B01D9DF
:1025EC00032367E0354B1B6803F00073002BF0D11D
:1025FC007B681B6AB3F5803F08D1304B5B6823F4D2
:10260C0000327B689B682D4913434B602B4B5B68F6
:10261C0023F474127B68196A7B685B6A0B43274945
:10262C0013434B60274B01221A60FEF729FE3861D9
:10263C0008E0FEF725FE02463B69D31A022B01D9AE
:10264C00032337E01D4B1B6803F00073002BF0D005
:10265C002FE01C4B00221A60FEF712FE386108E0D6
:10266C00FEF70EFE02463B69D31A022B01D9032357
:10267C0020E0124B1B6803F00073002BF0D118E024
:10268C007B68DB69012B01D1012313E00B4B5B68E9
:10269C00FB60FB6803F480327B681B6A9A4206D1AC
:1026AC00FB6803F470127B685B6A9A4201D00123C9
:1026BC0000E0002318461837BD4680BD00100240CC
:1026CC00007000406000424280B584B000AF78607A
:1026DC0039607B68002B01D10123D0E06A4B1B6869
:1026EC0003F007033A689A4210D9674B1B6823F032
:1026FC00070265493B6813430B60634B1B6803F08F
:10270C0007033A689A4201D00123B8E07B681B6842
:10271C0003F00203002B20D07B681B6803F004033A
:10272C00002B05D0594B5B68584A43F4E063536067
:10273C007B681B6803F00803002B05D0534B5B68C8
:10274C00524A43F460535360504B5B6823F0F002E1
:10275C007B689B684D4913434B607B681B6803F097
:10276C000103002B40D07B685B68012B07D1474BE2
:10277C001B6803F40033002B15D101237FE07B6829
:10278C005B68022B07D1414B1B6803F00073002BD5
:10279C0009D1012373E03D4B1B6803F00203002BAE
:1027AC0001D101236BE0394B5B6823F003027B689A
:1027BC005B68364913434B60FEF762FDF8600AE034
:1027CC00FEF75EFD0246FB68D31A41F28832934253
:1027DC0001D9032353E02D4B5B6803F00C027B689B
:1027EC005B689B009A42EBD1274B1B6803F00703F5
:1027FC003A689A4210D2244B1B6823F007022249F4
:10280C003B6813430B60204B1B6803F007033A68CB
:10281C009A4201D0012332E07B681B6803F0040369
:10282C00002B08D0194B5B6823F4E0627B68DB68F3
:10283C00164913434B607B681B6803F00803002B9D
:10284C0009D0124B5B6823F460527B681B69DB0078
:10285C000E4913434B6000F021F802460B4B5B68AA
:10286C001B0903F00F030A49CB5C22FA03F3094A54
:10287C001360094B1B681846FEF7C0FC0023184672
:10288C001037BD4680BD00BF002002400010024042
:10289C00EC3A00085C0000206000002080B487B097
:1028AC0000AF0023FB600023BB6000237B6100238F
:1028BC007B6000233B611E4B5B68FB60FB6803F095
:1028CC000C03042B02D0082B03D027E0194B3B61DF
:1028DC0027E0FB689B0C03F00F03174AD35C7B606B
:1028EC00FB6803F48033002B10D0114B5B685B0C3E
:1028FC0003F00103114AD35CBB607B680D4A02FBF9
:10290C0003F2BB68B2FBF3F37B6104E07B680C4A17
:10291C0002FB03F37B617B693B6102E0054B3B618E
:10292C0000BF3B6918461C37BD4680BC704700BFD2
:10293C000010024000127A00043B0008143B00080F
:10294C0000093D0080B400AF024B1B681846BD4621
:10295C0080BC70475C00002080B500AFFFF7F2FF31
:10296C000246054B5B681B0A03F007030349CB5C6B
:10297C0022FA03F3184680BD00100240FC3A00080E
:10298C0080B485B000AF78600A4B1B680A4AA2FB82
:10299C0003235B0A7A6802FB03F3FB6000BFFB684E
:1029AC005A1EFA60002BF9D100BF00BF1437BD4688
:1029BC0080BC70475C000020D34D621080B582B0A3
:1029CC0000AF78607B68002B01D1012341E07B686C
:1029DC0093F83D30DBB2002B06D17B68002283F8E4
:1029EC003C207868FEF73CFB7B68022283F83D2094
:1029FC007B681A687B6804331946104600F05CFA51
:102A0C007B68012283F846207B68012283F83E20F4
:102A1C007B68012283F83F207B68012283F84020E9
:102A2C007B68012283F841207B68012283F84220D5
:102A3C007B68012283F843207B68012283F84420C1
:102A4C007B68012283F845207B68012283F83D20B6
:102A5C00002318460837BD4680BD000080B485B001
:102A6C0000AF78607B6893F83D30DBB2012B01D06E
:102A7C0001233AE07B68022283F83D207B681B68C7
:102A8C00DA687B681B6842F00102DA607B681B68BD
:102A9C00184A93420ED07B681B68B3F1804F09D063
:102AAC007B681B68144A934204D07B681B68134AEA
:102ABC00934211D17B681B689B6803F00703FB6092
:102ACC00FB68062B10D07B681B681A687B681B6838
:102ADC0042F001021A6007E07B681B681A687B6889
:102AEC001B6842F001021A60002318461437BD46D9
:102AFC0080BC7047002C01400004004000080040DE
:102B0C0080B584B000AF78607B681B68DB68FB60C5
:102B1C007B681B681B69BB60BB6803F00203002B5E
:102B2C0020D0FB6803F00203002B1BD07B681B68D2
:102B3C006FF002021A617B6801221A777B681B68AE
:102B4C009B6903F00303002B03D0786800F098F91D
:102B5C0005E0786800F08BF9786800F09AF97B68EA
:102B6C0000221A77BB6803F00403002B20D0FB680B
:102B7C0003F00403002B1BD07B681B686FF004026E
:102B8C001A617B6802221A777B681B689B6903F4C5
:102B9C004073002B03D0786800F072F905E0786878
:102BAC0000F065F9786800F074F97B6800221A77F8
:102BBC00BB6803F00803002B20D0FB6803F008036C
:102BCC00002B1BD07B681B686FF008021A617B68B6
:102BDC0004221A777B681B68DB6903F00303002B64
:102BEC0003D0786800F04CF905E0786800F03FF904
:102BFC00786800F04EF97B6800221A77BB6803F006
:102C0C001003002B20D0FB6803F01003002B1BD00B
:102C1C007B681B686FF010021A617B6808221A77B8
:102C2C007B681B68DB6903F44073002B03D0786866
:102C3C0000F026F905E0786800F019F9786800F0E2
:102C4C0028F97B6800221A77BB6803F00103002B7C
:102C5C000CD0FB6803F00103002B07D07B681B68CA
:102C6C006FF001021A617868FEF7C4F8BB6803F0D4
:102C7C008003002B0CD0FB6803F08003002B07D0E3
:102C8C007B681B686FF080021A61786800F07FFA2D
:102C9C00BB6803F04003002B0CD0FB6803F040032F
:102CAC00002B07D07B681B686FF040021A617868B4
:102CBC0000F0F8F8BB6803F02003002B0CD0FB6885
:102CCC0003F02003002B07D07B681B686FF02002F9
:102CDC001A61786800F052FA00BF1037BD4680BD0B
:102CEC0080B584B000AF786039600023FB737B68DB
:102CFC0093F83C30012B01D10223B4E07B68012214
:102D0C0083F83C207B68022283F83D207B681B689B
:102D1C009B68BB60BB6823F07703BB60BB6823F484
:102D2C007F43BB607B681B68BA689A603B681B6812
:102D3C00B3F5005F3ED0B3F5005F00F28780B3F5CA
:102D4C00805F00F08680B3F5805F7FD8702B1AD03F
:102D5C00702B7BD8602B50D0602B77D8502B3CD06D
:102D6C00502B73D8402B58D0402B6FD8302B64D0BD
:102D7C00302B6BD8202B60D0202B67D8002B5CD04D
:102D8C00102B5AD062E07B6818683B6899683B68E6
:102D9C005A683B68DB6800F074F97B681B689B68B9
:102DAC00BB60BB6843F07703BB607B681B68BA6889
:102DBC009A604FE07B6818683B6899683B685A6872
:102DCC003B68DB6800F05DF97B681B689A687B6880
:102DDC001B6842F480429A603CE07B6818683B6850
:102DEC0059683B68DB681A4600F0D4F87B681B68AE
:102DFC005021184600F02BF92CE07B6818683B68D2
:102E0C0059683B68DB681A4600F0F2F87B681B686F
:102E1C006021184600F01BF91CE07B6818683B68C1
:102E2C0059683B68DB681A4600F0B4F87B681B688D
:102E3C004021184600F00BF90CE07B681A683B68DF
:102E4C001B681946104600F002F903E00123FB73DE
:102E5C0000E000BF7B68012283F83D207B680022E4
:102E6C0083F83C20FB7B18461037BD4680BD80B4F0
:102E7C0083B000AF786000BF0C37BD4680BC704794
:102E8C0080B483B000AF786000BF0C37BD4680BC07
:102E9C00704780B483B000AF786000BF0C37BD467C
:102EAC0080BC704780B483B000AF786000BF0C3733
:102EBC00BD4680BC7047000080B485B000AF786020
:102ECC0039607B681B68FB607B682F4A93420BD090
:102EDC007B68B3F1804F07D07B682C4A934203D0B8
:102EEC007B682B4A934208D1FB6823F07003FB608C
:102EFC003B685B68FA681343FB607B68224A934229
:102F0C000BD07B68B3F1804F07D07B681F4A93428C
:102F1C0003D07B681E4A934208D1FB6823F44073AC
:102F2C00FB603B68DB68FA681343FB60FB6823F0CB
:102F3C0080023B685B691343FB607B68FA681A602C
:102F4C003B689A687B68DA623B681A687B689A62AD
:102F5C007B680D4A934203D13B681A697B681A63FC
:102F6C007B6801225A617B681B6903F00103002B0B
:102F7C0005D07B681B6923F001027B681A6100BFD6
:102F8C001437BD4680BC7047002C01400004004043
:102F9C000008004080B487B000AFF860B9607A6078
:102FAC00FB681B6A7B61FB681B6A23F00102FB68F0
:102FBC001A62FB689B693B613B6923F0F0033B6140
:102FCC007B681B013A6913433B617B6923F00A035D
:102FDC007B617A69BB6813437B61FB683A699A61D0
:102FEC00FB687A691A6200BF1C37BD4680BC70470B
:102FFC0080B487B000AFF860B9607A60FB681B6A78
:10300C007B61FB681B6A23F01002FB681A62FB6889
:10301C009B693B613B6923F470433B617B681B03F9
:10302C003A6913433B617B6923F0A0037B61BB6866
:10303C001B017A6913437B61FB683A699A61FB68EF
:10304C007A691A6200BF1C37BD4680BC704780B4D9
:10305C0085B000AF786039607B689B68FB60FB686B
:10306C0023F07003FB603A68FB68134343F00703DB
:10307C00FB607B68FA689A6000BF1437BD4680BC61
:10308C00704780B487B000AFF860B9607A603B607D
:10309C00FB689B687B617B6923F47F437B613B68A6
:1030AC001A027B681A43BB6813437A6913437B612A
:1030BC00FB687A699A6000BF1C37BD4680BC7047BC
:1030CC0080B485B000AF786039607B6893F83C3091
:1030DC00012B01D1022346E07B68012283F83C20BE
:1030EC007B68022283F83D207B681B685B68FB6071
:1030FC007B681B689B68BB60FB6823F07003FB60FC
:10310C003B681B68FA681343FB607B681B68FA68B2
:10311C005A607B681B68164A93420ED07B681B680A
:10312C00B3F1804F09D07B681B68124A934204D0DC
:10313C007B681B68104A93420CD1BB6823F0800358
:10314C00BB603B685B68BA681343BB607B681B68F9
:10315C00BA689A607B68012283F83D207B68002264
:10316C0083F83C20002318461437BD4680BC7047BA
:10317C00002C0140000400400008004080B483B0E3
:10318C0000AF786000BF0C37BD4680BC704780B480
:10319C0083B000AF786000BF0C37BD4680BC704771
:1031AC00014B1868704700BF6800002070B50026FE
:1031BC000C4D0D4C641BA410A64209D100F070FC00
:1031CC0000260A4D0A4C641BA410A64205D170BD02
:1031DC0055F8043B98470136EEE755F8043B984701
:1031EC000136F2E74C3B00084C3B00084C3B000816
:1031FC00503B000803460244934200D1704703F849
:10320C00011BF9E70CB430B5174B0C1E1D689DB0B3
:10321C0008DA8B234FF0FF302B601DB0BDE8304037
:10322C0002B070474FF40273ADF814300CBF234654
:10323C0004F1FF33049307934FF6FF73029006904B
:10324C00ADF81630284621AB209A02A9019300F064
:10325C0069F8431CBCBF8B232B60002CDDD00022F3
:10326C00029B1A70D9E700BF680000202DE9F047D7
:10327C008E6882469E420C4690461F4638D88A89F4
:10328C0012F4906F32D0256809690133A5EB01095E
:10329C0065694B4405EB450505EBD5756D109D42F5
:1032AC0038BF1D46530531D5294600F053FB064661
:1032BC0050B90C234FF0FF30CAF80030A38943F00B
:1032CC004003A381BDE8F0874A46216900F0CEFA9D
:1032DC00A38923F4906343F08003A38126614E44B9
:1032EC0026603E466561A5EB0905A560BE4200D986
:1032FC003E4632464146206800F0C6FAA368226872
:10330C009B1B32440020A3602260DBE72A4600F0BE
:10331C007BFB06460028E1D15046216900F0CEFA2D
:10332C00C7E700002DE9F04F98468B8907461B062E
:10333C000D4614469DB00ED50B6963B9402100F0C3
:10334C0009FB2860286120B90C233B604FF0FF304B
:10335C00D1E040236B610023099320238DF82930A1
:10336C0030234FF00109CDF80C80DFF8A4818DF8E3
:10337C002A3023469A4613F8012B0AB1252AF9D193
:10338C00BAEB040B0BD05B46224629463846FFF7B6
:10339C006DFF013000F0AA80099A5A4409929AF8FC
:1033AC000030002B00F0A28000234FF0FF32CDE95B
:1033BC0005230AF1010A049307938DF853301A93ED
:1033CC005446052214F8011B514800F041FA049AA6
:1033DC00D8B9D00644BF20238DF85330110744BF11
:1033EC002B238DF853309AF800302A2B15D05446E5
:1033FC0000204FF00A0C079A214611F8013B303B94
:10340C00092B4ED9B0B1079214E0A0EB080309FACE
:10341C0003F31343A2460493D2E7039B191D1B68C5
:10342C000391002BBBBF5B4242F002020793079350
:10343C00B8BF049223782E2B0CD163782A2B35D16C
:10344C00039B02341A1D1B680392002BB8BF4FF06C
:10345C00FF330593DFF8C8A003225046217800F013
:10346C00F7F940B14023A0EB0A0003FA00F0049BEB
:10347C0001340343049314F8011B062225488DF8EC
:10348C00281000F0E5F9002838D0234B1BBB039B18
:10349C00073323F0070308330393099B3344099341
:1034AC0067E70C4601200CFB0232A5E700234FF026
:1034BC000A0C194601340593204610F8012B303ABA
:1034CC00092A03D9002BC5D00591C3E70446012373
:1034DC000CFB0121F0E703AB00932A4638460F4B57
:1034EC0004A9AFF30080421C0646D6D1AB895B061B
:1034FC003FF52CAF09981DB0BDE8F08F03AB0093DE
:10350C002A463846054B04A900F07CF8EBE700BFCF
:10351C00163B0008203B0008000000007932000830
:10352C001C3B00082DE9F047164699468A680B6942
:10353C0007469342B8BF1346336091F843200C46BC
:10354C00DDF820800AB1013333602368990642BF4D
:10355C00336802333360256815F0060506D104F193
:10356C00190AE36832689B1AAB4228DC94F84320B2
:10357C00131E226818BF012392062DD449463846E3
:10358C0004F14302C047013020D02368E56803F002
:10359C000603042B18BF002532684FF00006A36801
:1035AC0008BFAD1A226908BF25EAE5759342C4BF6E
:1035BC009B1AED181A34B5421AD1002008E00123E9
:1035CC00524649463846C047013003D14FF0FF30D0
:1035DC00BDE8F0870135C4E73020E11881F84300DD
:1035EC005A1C94F845102244023382F84310C5E764
:1035FC000123224649463846C0470130E6D0013601
:10360C00D9E700002DE9FF470C46277E9146782F1D
:10361C0080469A460C9904F1430207D8622F0AD8C7
:10362C00002F00F0D980582F00F0A48004F142063E
:10363C0084F842703AE0A7F16303152BF6D801A089
:10364C0050F823F0A9360008BD36000839360008BA
:10365C00393600083936000839360008BD360008FE
:10366C003936000839360008393600083936000872
:10367C00CB370008ED360008AD37000839360008A6
:10368C0039360008ED37000839360008ED360008E9
:10369C003936000839360008B53700080B6804F1D4
:1036AC0042061A1D1B680A6084F842300123A4E00C
:1036BC00256808682E0600F104030AD505680B601E
:1036CC00002D03DA2D236D4284F843300A235E4823
:1036DC0019E015F0400F05680B6018BF2DB2EFE72D
:1036EC000B682568181D0860280601D51D6802E0C6
:1036FC006906FBD51D886F2F0CBF08230A2352487F
:10370C00002184F843106668002EA8BF2168A660CB
:10371C00A4BF21F0040121600DB9002E4DD0164636
:10372C00B5FBF3F103FB1157C75D06F8017D2F467E
:10373C00BB420D46F4D9082B0BD12368DF0708D503
:10374C00236961689942DEBF302306F8013C06F11B
:10375C00FF36921B22614B4621464046CDF800A015
:10376C0003AAFFF7DFFE01304CD14FF0FF3004B05D
:10377C00BDE8F087344884F845700E68236856F825
:10378C00045B1F060E6014D5D90744BF43F0200319
:10379C0023601DB9236823F0200323601023AFE7B7
:1037AC00236843F0200323607823284884F84530AD
:1037BC00E3E75E0648BFADB2E6E71646BBE70B682B
:1037CC0026681D1D60690D6035061B6801D51860E3
:1037DC0002E07106FBD51880002316462361BAE778
:1037EC000B681A1D0A601E6800213046626800F0E2
:1037FC002FF808B1801B606063682361002384F894
:10380C004330A8E73246494640462369D047013049
:10381C00ABD023689B0713D4E068039B9842B8BFD6
:10382C001846A4E70123324649464046D0470130AA
:10383C009BD00135E36803995B1AAB42F2DCEBE7F2
:10384C00002504F11906F5E7273B0008383B000872
:10385C00034610B5C9B202449342184601D1002068
:10386C0003E0047801338C42F6D110BD0A44914236
:10387C0000F1FF3300D1704710B511F8014B9142A4
:10388C0003F8014FF9D110BD884210B501EB0204C9
:10389C0002D98442234607D8431EA14208D011F80E
:1038AC00012B03F8012FF8E7014602448A4200D1AC
:1038BC0010BD13F8014D02F8014DF7E738B5054678
:1038CC00002943D051F8043C0C1F002BB8BFE4185E
:1038DC0000F0D0F81E4A1368104633B963601460C8
:1038EC002846BDE8384000F0CBB8A3420AD921687D
:1038FC006218934201BF1A685B68521822606360B9
:10390C000460EDE71A465B680BB1A342FAD9116863
:10391C005018A0420BD1206801445018834211600A
:10392C00DED118685B68014411605360D8E702D996
:10393C000C232B60D4E7206821188B4201BF196837
:10394C005B680918216063605460C9E738BD00BF2B
:10395C0010010020F8B5CD1C25F0030508350C2D01
:10396C0038BF0C25002D064601DBA94203D90C23D8
:10397C0033600020F8BD00F07DF821490A68144638
:10398C009CB9204F3B6823B92146304600F062F8C1
:10399C0038602946304600F05DF8431C23D10C23D7
:1039AC003046336000F06CF8E3E723685B1B17D4F8
:1039BC000B2B03D923601C44256004E06368A242EE
:1039CC000CBF0B605360304600F05AF804F10B004A
:1039DC00231D20F00700C21ACCD01B1AA350C9E734
:1039EC0022466468CCE7C41C24F00304A042E3D054
:1039FC00211A304600F02EF80130DDD1CFE700BFA0
:103A0C001001002014010020F8B5074614460E469C
:103A1C0021B91146BDE8F840FFF79CBF22B9FFF76A
:103A2C004DFF25462846F8BD00F030F8A0420FD2D5
:103A3C0021463846FFF78EFF05460028F2D0314666
:103A4C002246FFF713FF31463846FFF737FFE9E709
:103A5C003546E7E738B50023054D044608462B608C
:103A6C00FDF754FB431C02D12B6803B1236038BD16
:103A7C00B8010020014800F011B800BFC0010020BF
:103A8C00014800F00CB800BFC001002051F8043C04
:103A9C00181F002BBCBF0B58C018704770477047DD
:103AAC00F8B500BFF8BC08BC9E467047F8B500BF1F
:083ABC00F8BC08BC9E467047EF
:103AC4004D61696E3A200000256400005369646505
:103AD4003A2000004D6F64653A200000447572611D
:103AE40074696F6E3A2000000000000000000000BE
:103AF4000102030406070809000000000102030490
:103B040002030405060708090A0B0C0D0E0F10101A
:103B14000102232D302B2000686C4C00656667453C
:103B24004647003031323334353637383941424331
:103B340044454600303132333435363738396162E2
:083B44006364656600000000E7
:043B4C00310100083B
:043B50000D0100085B
:103B5400010000000100000001000000010000005D
:103B6400C800000001000000010000000100000086
:103B740001000000640000000100000001000000DA
:103B84000100000001000000C800000088130000CC
:103B9400D0070000B80B00000100000088130000EB
:103BA400D0070000B80B00000A00000000127A00E1
:103BB40010000000010000006C0000200000000064
:103BC40000000000000000000000000000000000F1
:103BD40000000000000000000000000000000000E1
:103BE40000000000000000000000000000000000D1
:103BF40000000000000000000000000000000000C1
:103C040000000000000000000000000000000000B0
:0C3C1400000000000000000000000000A4
:04000005080011914D
:00000001FF
